:020000040000FA
:100000000C945D000C9485000C9485000C94850084
:100010000C9485000C9485000C9485000C9485004C
:100020000C9485000C9485000C9485000C9485003C
:100030000C9485000C9485000C9485000C9485002C
:100040000C9461040C9485000C9446050C942205D4
:100050000C94AB040C9485000C9485000C948500E2
:100060000C9485000C9485000000000024002700FB
:100070002A0000000000250028002B0004040404CE
:100080000404040402020202020203030303030342
:10009000010204081020408001020408102001021F
:1000A00004081020000000080002010000030407FB
:1000B0000000000000000000900811241FBECFEFD8
:1000C000D8E0DEBFCDBF11E0A0E0B1E0E0E5F2E1B5
:1000D00002C005900D92A832B107D9F726E0A8E238
:1000E000B1E001C01D92A737B207E1F710E0CDE5FE
:1000F000D0E004C02197FE010E940C09CC35D10745
:10010000C9F70E94C4050C9426090C94000090E0E5
:10011000FC01EC55FF4F2491FC01E057FF4F349157
:10012000FC01E458FF4FE491EE23C9F0222339F09B
:10013000233001F1A8F4213019F1223029F1F0E047
:10014000EE0FFF1FEE58FF4FA591B4918FB7F894B3
:10015000EC91611126C030953E233C938FBF0895EA
:100160002730A9F02830C9F0243049F78091800069
:100170008F7D03C0809180008F7780938000DFCFD8
:1001800084B58F7784BDDBCF84B58F7DFBCF809125
:10019000B0008F778093B000D2CF8091B0008F7D78
:1001A000F9CF3E2BDACF3FB7F89480917306909148
:1001B0007406A0917506B091760626B5A89B05C079
:1001C0002F3F19F00196A11DB11D3FBFBA2FA92FD6
:1001D000982F8827BC01CD01620F711D811D911DD3
:1001E00042E0660F771F881F991F4A95D1F708953F
:1001F00080E991E008950F931F93CF93DF932091AF
:1002000029012F5F322F37703093290120FF2BC037
:1002100020E831FD2064347009F02062205FFC0189
:10022000EC01239600E011E06485662329F070E07C
:10023000C8010E94B0086F5F6187822F869F080EF9
:1002400080E0811D1124811110C01682662311F0F7
:10025000615061873196EC17FD0731F7DF91CF913F
:100260001F910F91089520E0D4CF81508683EECF67
:100270004F925F926F927F929F92AF92BF92DF9266
:10028000EF92FF920F931F93CF93DF932C01EB011B
:100290000E94D300F20127853089621B730B6A30FC
:1002A0007105B0F3F8948A819B81181619060CF039
:1002B000C9C1E881F9816BB160645BB15F7B5BB9F7
:1002C000DA848F819D2D981B9F832F85022E000C31
:1002D000330BAA81BB817D85FC84EE847F5FF39420
:1002E000E3946E809884B984AB84118180E0082FF8
:1002F000482F4181112788944111490F08F44FEF8D
:100300009195889470FD140F1795889471FD140FC2
:100310001795889472FD140F1795889473FD140F28
:100320001795889474FD140F1795889475FD140F14
:100330001795889476FD140F1795889477FD140F00
:1003400017958894842F7111812F9D0D182F002CE3
:100350006BB900C017FF5BB940818827889400C043
:1003600000C0002C5BB94111460D00C0002C6BB9D8
:1003700000C016FF5BB908F44FEF6194889400C089
:1003800000C0002C5BB9F0FC840F00C0002C6BB9DE
:1003900000C015FF5BB987958894F1FC840F00C0FD
:1003A00000C0002C5BB98795889400C0002C6BB905
:1003B00000C014FF5BB9F2FC840F8795889400C0DD
:1003C00000C0002C5BB9F3FC840F00C0002C6BB99B
:1003D00000C013FF5BB987958894F4FC840F00C0BC
:1003E00000C0002C5BB98795889400C0002C6BB9C5
:1003F00000C012FF5BB9F5FC840F8795889400C09C
:1004000000C0002C5BB9F6FC840F00C0002C6BB957
:1004100000C011FF5BB987958894F7FC840F00C07A
:1004200000C0002C5BB98795889400C0002C6BB984
:1004300000C010FF5BB9142FF110182F6B0C00C017
:1004400000C0002C5BB900C000C0002C6BB900C01C
:1004500017FF5BB942818827889400C000C0002C38
:100460005BB94111490D00C0002C6BB900C016FFEB
:100470005BB908F44FEFE20FF31F00C000C0002C7F
:100480005BB9E0FC840F00C0002C6BB900C015FF05
:100490005BB987958894E1FC840F00C000C0002CF4
:1004A0005BB98795889400C0002C6BB900C014FF1D
:1004B0005BB9E2FC840F8795889400C000C0002CD3
:1004C0005BB9E3FC840F00C0002C6BB900C013FFC4
:1004D0005BB987958894E4FC840F00C000C0002CB1
:1004E0005BB98795889400C0002C6BB900C012FFDF
:1004F0005BB9E5FC840F8795889400C000C0002C90
:100500005BB9E6FC840F00C0002C6BB900C011FF82
:100510005BB987958894E7FC840F00C000C0002C6D
:100520005BB98795889400C0002C6BB900C010FFA0
:100530005BB9142FE110182F919400C000C0002C5B
:100540005BB99A0C00C000C06BB900C017FF5BB963
:1005500041818827889400C000C0002C5BB94111FC
:10056000490F00C0002C6BB900C016FF5BB908F43E
:100570004FEF9195889400C000C0002C5BB970FDCE
:10058000840F00C0002C6BB900C015FF5BB98795C4
:10059000889471FD840F00C000C0002C5BB9879562
:1005A000889400C0002C6BB900C014FF5BB972FDC9
:1005B000840F8795889400C000C0002C5BB973FD40
:1005C000840F00C0002C6BB900C013FF5BB9879586
:1005D000889474FD840F00C000C0002C5BB987951F
:1005E000889400C0002C6BB900C012FF5BB975FD88
:1005F000840F8795889400C000C0002C5BB976FDFD
:10060000840F00C0002C6BB900C011FF5BB9879547
:10061000889477FD840F00C000C0002C5BB98795DB
:10062000889400C0002C6BB900C010FF5BB9142F78
:100630007111182F9D0D00C000C0002C5BB91197DF
:1006400009F086CE4A815B8120EE31E0DA010E941A
:10065000E608DC01CB01F4E0B695A7959795879560
:10066000FA95D1F730E020E0B901EAE94E9F040E97
:10067000611D5E9F600D711D1124650F711D860F38
:10068000971FA11DB11D893EE3E09E07A105B1059D
:1006900008F434C0885E9340A109B10942E0B695E0
:1006A000A795979587954A95D1F747E0849F080EBF
:1006B000211D949F200D311D1124290F311D6091A2
:1006C000280170E0860F971F820F931F40916F06DD
:1006D000509170066091710670917206292F332730
:1006E000420F531F611D711D40936F06509370069A
:1006F00060937106709372068093280178940E942B
:10070000D300F201708B6787DF91CF911F910F911A
:10071000FF90EF90DF90BF90AF909F907F906F9091
:100720005F904F90089581E090E00895569A089563
:100730006F927F928F92CF92DF92EF92FF920F9300
:100740001F93CF93DF93CDB7DEB762970FB6F894C0
:10075000DEBF0FBECDBF6C017A013801822EDC01F5
:100760001C962C91CA0157FF04C088279927841B27
:10077000950B7A8369839C838B839E838D836D869F
:100780007E868F86213049F5CE0101960E94FB00BE
:1007900083E0888B1A8A198AF7FE02C08DEF888B56
:1007A000D601ED91FC910684F785E02DBE016F5FC7
:1007B0007F4FC601099562960FB6F894DEBF0FBE53
:1007C000CDBFDF91CF911F910F91FF90EF90DF9000
:1007D000CF908F907F906F9008951C861B861A860D
:1007E000198618861F82D4CFEF92FF920F931F9322
:1007F000CF93DF93CDB7DEB762970FB6F894DEBF25
:100800000FBECDBF7C01DC011C968C917A8369837D
:100810005C834B835E834D830D871E872F878130DA
:10082000F9F4CE0101960E94FB00188A1A8A198AEF
:10083000D701ED91FC910684F785E02DBE016F5F35
:100840007F4FC701099562960FB6F894DEBF0FBEC1
:10085000CDBFDF91CF911F910F91FF90EF90089541
:100860001C861B861A86198618861F82DECF90E0AA
:1008700080E00895FC018585968508950F931F9368
:10088000CF93DF9300D01F92CDB7DEB7AB011982B3
:100890001A821B82DC01ED91FC910190F081E02D28
:1008A00000E010E020E0BE016F5F7F4F09950F90E0
:1008B0000F900F90DF91CF911F910F9108950E949B
:1008C00021091F920F920FB60F9211242F933F937D
:1008D0008F939F93AF93BF9380916F069091700613
:1008E000A0917106B091720630916E0623E0230F3D
:1008F0002D3758F50196A11DB11D20936E068093EA
:100900006F0690937006A0937106B0937206809163
:10091000730690917406A0917506B09176060196C3
:10092000A11DB11D8093730690937406A093750664
:10093000B0937606BF91AF919F918F913F912F9188
:100940000F900FBE0F901F90189526E8230F029668
:10095000A11DB11DD2CF1F920F920FB60F9211247D
:100960002F933F938F939F93EF93FF9380914D012C
:1009700090914E0120915201309153012130310567
:10098000F9F48F3F9807E1F41092C50089E0809355
:10099000C40088E48093C1008EE28093C20010926C
:1009A000C60010924E0110924D01FF91EF919F9160
:1009B0008F913F912F910F900FBE0F901F90189520
:1009C0000097A1F41092C50083E08093C40088E2F0
:1009D0008093C1008EE08093C2001092C60081E037
:1009E00090E090934E0180934D01DFCF2091000164
:1009F000309101018217930770F49C012F5F3F4FE4
:100A000030934E0120934D018C5A9E4FFC01808102
:100A10008093C600CACF1092C50083E08093C400C3
:100A200088E48093C1008EE08093C200E0914D0184
:100A3000F0914E01EC5AFE4F80818093C6008FEFFB
:100A40009FEFCFCF1F920F920FB60F9211242F93CB
:100A50003F934F935F936F937F938F939F93AF9346
:100A6000BF93EF93FF930E94AB04FF91EF91BF916F
:100A7000AF919F918F917F916F915F914F913F9136
:100A80002F910F900FBE0F901F9018951F920F92ED
:100A90000FB60F9211242F938F939F93AF93BF9311
:100AA000EF93FF932091C0008091C60090914F0179
:100AB000913079F482E080934F01FF91EF91BF91E3
:100AC000AF919F918F912F910F900FBE0F901F901C
:100AD000189524FF1FC083E080934F0184E591E0C7
:100AE00090934C0180934B0180914F01853029F701
:100AF00080915201909153010397E1F61092C50045
:100B000083E08093C40080E18093C10086E08093FD
:100B1000C200D3CF9330F1F4811132C084E08093CE
:100B20004F012FB7F89480916F0690917006A091B5
:100B30007106B09172062FBF8093470190934801D0
:100B4000A0934901B0934A0180914B0190914C01CF
:100B50000196C6CF943041F6E0914B01F0914C01E3
:100B60009081891380833196F0934C01E0934B017F
:100B700080914501909146018E179F0708F09DCF07
:100B800085E080934F01B0CFCF93DF9300D000D0AA
:100B9000CDB7DEB7789484B5826084BD84B58160BA
:100BA00084BD85B5826085BD85B5816085BD809138
:100BB0006E00816080936E001092810080918100B0
:100BC00082608093810080918100816080938100A8
:100BD000809180008160809380008091B10084606A
:100BE0008093B1008091B00081608093B0008091CB
:100BF0007A00846080937A0080917A00826080938A
:100C00007A0080917A00816080937A0080917A00E6
:100C1000806880937A001092C10080913D0181111B
:100C200045C010922F0110922E018FEF8093320158
:100C30008093330180933401809335018093360192
:100C40008093370181E08093380110923A0110922D
:100C50003901109231011092300180915B03909123
:100C60005C03892B31F48CE291E090935C038093D8
:100C70005B03E0912A01F0912B01309721F08CE287
:100C800091E0958384838CE291E090932B01809393
:100C90002A0110923C0110923B0188E191E090936F
:100CA0002D0180932C0181E080933D01569A8EE6C0
:100CB00093E090932F0180932E0180E091E0909338
:100CC0003A01809339018091640390916503A0916A
:100CD0006603B0916703843C29E09207A105B10542
:100CE00020F484EC99E0A0E0B0E08093640390935A
:100CF0006503A0936603B0936703109253011092AB
:100D0000520182E090E0909351018093500181E084
:100D100080934F0110924E0110924D0184E591E0B5
:100D200090934C0180934B012FB7F89480916F06FC
:100D300090917006A0917106B09172062FBF8093BA
:100D4000470190934801A0934901B0934A0180E084
:100D500092E09093010180930001809100019091B5
:100D600001018C5A9E4F9093460180934501E4E522
:100D7000F1E0119243E0E535F407D9F782E090E025
:100D800090935301809352011092C00080915001C2
:100D9000909151019927FC01E057FF4F249184580D
:100DA0009F4FFC018491882399F090E0880F991F50
:100DB000FC01E859FF4FA591B491FC01EE58FF4F9B
:100DC000859194918FB7F894EC91E22BEC938FBFBF
:100DD0001091500160E0812F0E94870080915201A4
:100DE000909153018130910509F0FBC061E0812FA2
:100DF0000E94870080E290E09093010180930001BF
:100E00001092C50089E08093C40088E48093C100FB
:100E10008EE28093C2001092C60098EE292E93E0D5
:100E2000392E20E0822E20E0922EEEE6F3E081E0E3
:100E300090E09C012F5F3F4F213042E0340714F0D7
:100E400020E032E02C5A3E4FD9015C919C012E5F8C
:100E50003F4F2130B2E03B0714F020E032E02C5A43
:100E60003E4FD9014C919C018130B2E09B0714F0B8
:100E700020E032E02C5A3E4FD9012C91208351833F
:100E80004283039633968130B3E09B0791F6D0906E
:100E900061038091640390916503A0916603B09112
:100EA0006703892B8A2B8B2BD9F00E94D3000091EA
:100EB0005D0310915E0320915F0330916003601B1E
:100EC000710B820B930B00916403109165032091C9
:100ED0006603309167036017710782079307C8F2B2
:100EE0000E94D30060935D0370935E0380935F0361
:100EF00090936003E0916C03F0916D03309759F08B
:100F0000409168035091690360916A0370916B038B
:100F10008D2D0995D82EE0905B03F0905C034D2C4D
:100F2000512C712C612CE114F10409F478C0F70103
:100F3000F485FC838091620390916303843691056C
:100F400018F4D7011C961C92D701ED91FC91A28058
:100F5000B38019821A821B82DD2079F1F70136965F
:100F600010E000E02191222319F1C280CC2001F190
:100F700030E050E040E02F5F3F4F4F4F5F4FC301E5
:100F8000B2010E94A0089B01AC018C2D90E0B0E062
:100F9000A0E0BC01CD016F5F7F4F8F4F9F4F0E943C
:100FA000A008A1E0B0E0AC0FBD1FA00FB11F8C9353
:100FB0000F5F1F4F03301105A9F609811A812B819C
:100FC000F7014585568562817381C701F501099551
:100FD000EC81D7011C96EC931C971496ED90FC9035
:100FE000A2CF029709F019CF84E591E090934C01CC
:100FF00080934B0181E080934F011092C50083E004
:101000008093C40080E98093C10086E08093C20091
:101010008091C00087FF01CF8091C600F9CF8091F9
:10102000590390915A039C012F5F3F4F30935A030D
:101030002093590349970CF448C08FB7F894209136
:101040006F063091700640917106509172068FBF05
:101050008091550390915603A0915703B091580386
:10106000281B390B4A0B5B0B21F421E030E040E0F8
:1010700050E08091590390915A03829DB001839D65
:10108000700D929D700D1124072E000C880B990B8A
:101090000E94C408309363032093620310925A03A2
:1010A000109259032FB7F89480916F0690917006B3
:1010B000A0917106B09172062FBF80935503909353
:1010C0005603A0935703B09358030E94D3006B01BB
:1010D0007C0182E3482E512C612C712C0E94D3009C
:1010E0006C197D098E099F09683E73408105910541
:1010F000A8F3F1E04F1A51086108710828EEC20EFA
:1011000023E0D21EE11CF11C41145104610471045E
:1011100029F78114910409F488CE0E94000085CE3D
:10112000E1E6F3E08FEF808312821182148613864A
:101130008FEF9FEFDC0187839087A187B2870895A7
:10114000DB018F939F930E94ED08BF91AF91A29F07
:10115000800D911DA39F900DB29F900D11240895B5
:1011600097FB072E16F4009407D077FD09D00E9454
:10117000F80807FC05D03EF4909581959F4F08959F
:10118000709561957F4F0895A1E21A2EAA1BBB1B93
:10119000FD010DC0AA1FBB1FEE1FFF1FA217B30743
:1011A000E407F50720F0A21BB30BE40BF50B661F59
:1011B000771F881F991F1A9469F76095709580951D
:1011C00090959B01AC01BD01CF0108950E941209C9
:1011D000B7FF0895821B930B08950E941209A59FE3
:1011E000900DB49F900DA49F800D911D1124089522
:1011F000AA1BBB1B51E107C0AA1FBB1FA617B7073D
:1012000010F0A61BB70B881F991F5A95A9F7809558
:101210009095BC01CD010895EE0FFF1F0590F4914C
:10122000E02D0994A29FB001B39FC001A39F700D50
:10123000811D1124911DB29F700D811D1124911DDE
:10124000089581E090E0F8940C942609F894FFCF7B
:101250002000000000005F045F045F043E043A04C5
:101260009303370400000000F403980396033E0440
:081270003A049303F800380171
:107E0000112484B714BE81FFF0D085E080938100F7
:107E100082E08093C00088E18093C10086E0809377
:107E2000C20080E18093C4008EE0C9D0259A86E02C
:107E300020E33CEF91E0309385002093840096BBD3
:107E4000B09BFECF1D9AA8958150A9F7CC24DD24C4
:107E500088248394B5E0AB2EA1E19A2EF3E0BF2EE7
:107E6000A2D0813461F49FD0082FAFD0023811F036
:107E7000013811F484E001C083E08DD089C08234E0
:107E800011F484E103C0853419F485E0A6D080C0E4
:107E9000853579F488D0E82EFF2485D0082F10E0AE
:107EA000102F00270E291F29000F111F8ED06801E7
:107EB0006FC0863521F484E090D080E0DECF843638
:107EC00009F040C070D06FD0082F6DD080E0C81688
:107ED00080E7D80618F4F601B7BEE895C0E0D1E017
:107EE00062D089930C17E1F7F0E0CF16F0E7DF06D8
:107EF00018F0F601B7BEE89568D007B600FCFDCFD4
:107F0000A601A0E0B1E02C9130E011968C91119780
:107F100090E0982F8827822B932B1296FA010C0160
:107F200087BEE89511244E5F5F4FF1E0A038BF0790
:107F300051F7F601A7BEE89507B600FCFDCF97BE46
:107F4000E89526C08437B1F42ED02DD0F82E2BD052
:107F50003CD0F601EF2C8F010F5F1F4F84911BD097
:107F6000EA94F801C1F70894C11CD11CFA94CF0C13
:107F7000D11C0EC0853739F428D08EE10CD085E9AC
:107F80000AD08FE07ACF813511F488E018D01DD067
:107F900080E101D065CF982F8091C00085FFFCCF94
:107FA0009093C60008958091C00087FFFCCF809118
:107FB000C00084FD01C0A8958091C6000895E0E648
:107FC000F0E098E1908380830895EDDF803219F02E
:107FD00088E0F5DFFFCF84E1DECF1F93182FE3DFCA
:107FE0001150E9F7F2DF1F91089580E0E8DFEE27F6
:047FF000FF270994CA
:027FFE00040479
:00000001FF
